S00C00004C6162372E73726563D2
S113000071C000008EC000008CC000008AC00000D7
S113001088C0000086C0000084C0000082C00000C8
S113002080C000007EC000007CC000007AC00000D8
S113003078C0000076C0000074C0000072C00000E8
S113004070C000006EC000006CC000006AC00000F8
S113005068C0000066C0000064C0000062C0000008
S113006060C000005EC000005CC000005AC0000018
S113007058C0000056C0000054C0000052C0000028
S113008050C000004EC000004CC000004AC0000038
S113009048C0000046C0000044C0000042C0000048
S11300A040C000003EC000003CC000003AC0000058
S11300B038C0000036C0000034C0000032C0000068
S11300C030C000002EC000002CC000002AC0000078
S11300D028C0000026C0000024C0000022C0000088
S11300E020C0000011241FBECFEFD1E2DEBFCDBF80
S11300F000E00CBF12E0A0E0B2E0E6E6F6E000E0CB
S11301000BBF02C007900D92AC37B107D9F722E0BC
S1130110ACE7B2E001C01D92A138B207E1F7D9D132
S1130120A0C26ECFCF93C82F8A3011F48DE0FADFCE
S1130130E0ECF0E0908195FFFDCFC093C60080E035
S113014090E0CF910895E0ECF0E080818823ECF713
S11301508091C60090E00895CF93C82F8A3011F49F
S11301608DE0FADFE8ECF0E0908195FFFDCFC093DD
S1130170CE0080E090E0CF910895E8ECF0E080813B
S11301808823ECF78091CE0090E00895EF92FF92DF
S11301900F931F93CF93DF93E82EF92E2EE032E0D6
S11301A047E250E061E070E08CE192E018D20E2D5D
S11301B01F2DC0E0D0E08EE092E0C5DFF80181930E
S11301C08F012196C530D105B1F70E2D1F2DC0E04A
S11301D0D0E06EE072E0F80181918F01A3DF2196F7
S11301E0C530D105B1F76EE072E08AE090E0C5D188
S11301F0DF91CF911F910F91FF90EF9008950F938E
S11302001F93CF93DF938C01C0E0D0E060E072E0F5
S1130210F80181918F01A0DF2196C530D105B1F796
S1130220DF91CF911F910F91089580E092E0A5DFB7
S1130230C09751F42EE032E044E050E061E070E019
S113024084E492E0CCC108952EE032E044E050E032
S113025061E070E089E492E0C2C10895EF92FF92F8
S11302600F931F93CF93DF93E82EF92E082F192FA6
S1130270C0E0D0E080E092E080DFF80181938F015C
S11302802196C530D105B1F70E2D1F2DC0E0D0E069
S11302906EE072E0F80181918F0144DF2196C53050
S11302A0D105B1F76EE072E08AE090E066D1DF91AB
S11302B0CF911F910F91FF90EF900895FC018081E1
S11302C0833551F08C3409F43BC060E072E080E384
S11302D043DF80E090E0089581818053833038F0DB
S11302E060E072E080E338DF80E090E0089582818E
S11302F08B3249F08D3239F060E072E080E32CDF1C
S113030080E090E00895838190ED980F9A3038F062
S113031060E072E080E320DF80E090E008958933BC
S113032029F0848180538A3020F432C08481803360
S113033079F160E072E080E30FDF80E090E00895FF
S113034081818053823038F060E072E080E304DF22
S113035080E090E0089582818F3439F060E072E0AB
S113036080E3FADE80E090E0089583818E3421F406
S113037084818E3431F40CC0863419F4848186343B
S113038039F060E072E080E3E7DE80E090E0089519
S113039060E072E081E3E0DE81E090E00895FC013A
S11303A08381992787FD9095C0979C01220F331F65
S11303B0880F991F880F991F880F991F820F931F09
S11303C02481332727FD309520533109280F391F05
S11303D082818B3249F44BE0429FC001439F900DD0
S11303E011248954944F0DC08D3249F445EF4203D2
S11303F0C001439F900D11248954944F02C080E0A2
S113040090E02181203321F4909389008093880027
S11304102181213321F490938B0080938A002181E0
S1130420223321F490938D0080938C000895FC0175
S11304302181203341F4E2E0F1E0308120812095F4
S1130440217023272083FC018181813341F4E2E080
S1130450F1E090818081809582708927808308955E
S11304608CE98093870080E4809386009BE09093DE
S1130470890087EB8093880090938B0080938A0097
S113048090938D0080938C008AEA809380008AE1A7
S11304908093810010926F0008951092C00088E14B
S11304A08093C10086E08093C2001092C50080E171
S11304B08093C40008951092C80088E18093C90015
S11304C086E08093CA001092CD0080E18093CC0036
S11304D00895CF93DF938FEF84B980930A0110922C
S11304E00B018093010110920201BADF7894D5DFE9
S11304F0E2DF809109018823BCF42EE032E046E17A
S113050050E061E070E08EE492E069D0DFEFC1E09A
S1130510D0BBC1BB8CE792E039DE8CE792E06FDEA2
S11305208CE792E082DEF4CF80910901882304F104
S11305302EE032E045E150E061E070E085E692E0D3
S11305404ED08CE792E08ADE8CE792E0B7DE01972A
S1130550C1F780917C02833519F48CE792E01FDFA8
S113056080917C028C3469F78CE792E060DFE9CFFC
S113057080E090E0DF91CF9108950F931F93CF9384
S1130580DF93182F092FEB018B8181FD03C08FEFBF
S11305909FEF20C082FF10C04E815F812C813D817E
S11305A0421753077CF4E881F9819F012F5F3F4F85
S11305B039832883108306C0E885F985812F19952E
S11305C0892B29F72E813F812F5F3F4F3F832E8355
S11305D0812F902FDF91CF911F910F9108958F92CA
S11305E09F92AF92BF92CF92DF92EF92FF920F93BE
S11305F01F93CF93DF936B014A017901D9011396BD
S11306002C9121FF1DC0C0E0D0E0C815D905D9F058
S11306108C015C01AC0CBD1CC8010A151B0571F0F2
S11306200F5F1F4FD7011896ED91FC911997B701F1
S1130630DC018C911995892B79F305C02196E5CFBE
S113064080E090E001C0CE01DF91CF911F910F9126
S1130650FF90EF90DF90CF90BF90AF909F908F90DE
S10906600895F894FFCF99
S11306660000000300000000AC00BD000000000014
S11306760003000000009200A300000044696769BB
S1130686746520756D20636F6D616E646F2076618D
S11306966C69646F2070617261206F20736C61767F
S11306A6653A0A00494E560A0041434B0A003C6823
S11306B66173683E202A2A2A204D4153544552200C
S11306C62A2A2A0A003C686173683E202A2A2A20BC
S10F06D6534C415645202A2A2A0A0000F1
S9030000FC
