S00C00004C6162372E73726563D2
S113000071C000008EC000008CC000008AC00000D7
S113001088C0000086C0000084C0000082C00000C8
S113002080C000007EC000007CC000007AC00000D8
S113003078C0000076C0000074C0000072C00000E8
S113004070C000006EC000006CC000006AC00000F8
S113005068C0000066C0000064C0000062C0000008
S113006060C000005EC000005CC000005AC0000018
S113007058C0000056C0000054C0000052C0000028
S113008050C000004EC000004CC000004AC0000038
S113009048C0000046C0000044C0000042C0000048
S11300A040C000003EC000003CC000003AC0000058
S11300B038C0000036C0000034C0000032C0000068
S11300C030C000002EC000002CC000002AC0000078
S11300D028C0000026C0000024C0000022C0000088
S11300E020C0000011241FBECFEFD1E2DEBFCDBF80
S11300F000E00CBF12E0A0E0B2E0E0E7FBE000E0CB
S11301000BBF02C007900D92AC39B107D9F722E0BA
S1130110ACE9B2E001C01D92A13AB207E1F7D9D12E
S113012025C56ECFCF93C82F8A3011F48DE0FADF46
S1130130E0ECF0E0908195FFFDCFC093C60080E035
S113014090E0CF910895E0ECF0E080818823ECF713
S11301508091C60090E00895CF93C82F8A3011F49F
S11301608DE0FADFE8ECF0E0908195FFFDCFC093DD
S1130170CE0080E090E0CF910895E8ECF0E080813B
S11301808823ECF78091CE0090E00895EF92FF92DF
S11301900F931F93CF93DF93E82EF92E2EE032E0D6
S11301A047E250E061E070E08CE192E03BD20E2D3A
S11301B01F2DC0E0D0E08EE092E0C5DFF80181930E
S11301C08F012196C530D105B1F70E2D1F2DC0E04A
S11301D0D0E06EE072E0F80181918F01A3DF2196F7
S11301E0C530D105B1F76EE072E08AE090E0E8D165
S11301F0DF91CF911F910F91FF90EF9008950F938E
S11302001F93CF93DF938C01C0E0D0E060E072E0F5
S1130210F80181918F01A0DF2196C530D105B1F796
S1130220DF91CF911F910F91089580E092E0A5DFB7
S1130230C09751F42EE032E044E050E061E070E019
S113024084E492E0EFC108952EE032E044E050E00F
S113025061E070E089E492E0E5C10895EF92FF92D5
S11302600F931F93CF93DF93E82EF92E082F192FA6
S1130270C0E0D0E080E092E080DFF80181938F015C
S11302802196C530D105B1F70E2D1F2DC0E0D0E069
S11302906EE072E0F80181918F0144DF2196C53050
S11302A0D105B1F76EE072E08AE090E089D1DF9188
S11302B0CF911F910F91FF90EF900895FC018081E1
S11302C0833551F08C3409F43BC060E072E080E384
S11302D043DF80E090E0089581818053833038F0DB
S11302E060E072E080E338DF80E090E0089582818E
S11302F08B3249F08D3239F060E072E080E32CDF1C
S113030080E090E00895838190ED980F9A3038F062
S113031060E072E080E320DF80E090E008958933BC
S113032029F0848180538A3020F432C08481803360
S113033079F160E072E080E30FDF80E090E00895FF
S113034081818053823038F060E072E080E304DF22
S113035080E090E0089582818F3439F060E072E0AB
S113036080E3FADE80E090E0089583818E3421F406
S113037084818E3431F40CC0863419F4848186343B
S113038039F060E072E080E3E7DE80E090E0089519
S113039060E072E081E3E0DE81E090E00895FC013A
S11303A08381992787FD9095C0979C01220F331F65
S11303B0880F991F880F991F880F991F820F931F09
S11303C02481332727FD309520533109280F391F05
S11303D082818B3249F44BE0429FC001439F900DD0
S11303E011248954944F0DC08D3249F445EF4203D2
S11303F0C001439F900D11248954944F02C080E0A2
S113040090E02181203321F4909389008093880027
S11304102181213321F490938B0080938A002181E0
S1130420223321F490938D0080938C000895FC0175
S11304302181203341F4E2E0F1E0308120812095F4
S1130440217023272083FC018181813341F4E2E080
S1130450F1E090818081809582708927808308955E
S11304608CE98093870080E4809386009BE09093DE
S1130470890087EB8093880090938B0080938A0097
S113048090938D0080938C008AEA809380008AE1A7
S11304908093810010926F0008951092C00088E14B
S11304A08093C10086E08093C2001092C50080E171
S11304B08093C40008951092C80088E18093C90015
S11304C086E08093CA001092CD0080E18093CC0036
S11304D00895CF93DF938FEF84B980930A0110922C
S11304E00B018093010110920201BADF7894D5DFE9
S11304F0E2DF8091090188230CF58EE492E09F935A
S11305008F9387E792E09F938F938EE092E09F937F
S11305108F9347D00F900F900F900F900F900F90E4
S1130520DFEFC1E0D0BBC1BB8CE992E02FDE8CE9E8
S113053092E065DE8CE992E078DEF4CF80910901E7
S1130540882354F18EE492E09F938F938AE892E09B
S11305509F938F938EE092E09F938F9322D00F907E
S11305600F900F900F900F900F908CE992E076DE31
S11305708CE992E0A3DE0197C1F780919C02833558
S113058019F48CE992E00BDF80919C028C3469F7BA
S11305908CE992E04CDFE9CF80E090E0DF91CF91ED
S11305A00895CF93DF93CDB7DEB7AE01465F5F4FBB
S11305B0688579858E819F8177D0DF91CF91089569
S11305C00F931F93CF93DF93182F092FEB018B8188
S11305D081FD03C08FEF9FEF20C082FF10C04E81CA
S11305E05F812C813D81421753077CF4E881F981B6
S11305F09F012F5F3F4F39832883108306C0E8850E
S1130600F985812F1995892B29F72E813F812F5F39
S11306103F4F3F832E83812F902FDF91CF911F91E6
S11306200F9108958F929F92AF92BF92CF92DF92D3
S1130630EF92FF920F931F93CF93DF936B014A01C5
S11306407901D90113962C9121FF1DC0C0E0D0E09F
S1130650C815D905D9F08C015C01AC0CBD1CC801CE
S11306600A151B0571F00F5F1F4FD7011896ED9106
S1130670FC911997B701DC018C911995892B79F3B9
S113068005C02196E5CF80E090E001C0CE01DF9166
S1130690CF911F910F91FF90EF90DF90CF90BF907B
S11306A0AF909F908F9008952F923F924F925F92B8
S11306B06F927F928F929F92AF92BF92CF92DF926E
S11306C0EF92FF920F931F93CF93DF93CDB7DEB7D3
S11306D02C970FB6F894DEBF0FBECDBF7C016B0123
S11306E08A01FC0117821682838181FFB0C1CE0189
S11306F001964C01F7019381F60193FD859193FFD7
S113070081916F01882309F49EC1853239F493FDE8
S1130710859193FF81916F01853221F4B70190E0B7
S11307204FDFE8CF512C312C20E02032A0F48B3263
S113073069F030F4803259F0833269F420612CC0BE
S11307408D3239F0803339F4216026C02260246070
S113075023C0286021C027FD27C030ED380F3A3070
S113076078F426FF06C0FAE05F9E300D1124532E64
S113077013C08AE0389E300D1124332E20620CC041
S11307808E3221F426FD5FC1206406C08C3611F43C
S1130790206802C0883641F4F60193FD859193FFE9
S11307A081916F018111C1CF982F9F7D9554933012
S11307B028F40C5F1F4FFFE3F9830DC0833631F03B
S11307C0833771F0833509F057C021C0F801808167
S11307D089830E5F1F4F44244394512C540114C049
S11307E03801F2E06F0E711CF801A080B18026FF81
S11307F003C0652D70E002C06FEF7FEFC5012C8749
S11308004CD12C0183012C852F77222E16C0380160
S1130810F2E06F0E711CF801A080B18026FF03C0C6
S1130820652D70E002C06FEF7FEFC5012C872AD1E0
S11308302C012C852068222E830123FC19C0832DD2
S113084090E048165906A0F4B70180E290E0B8DEC3
S11308503A94F5CFF50127FC859127FE81915F013C
S1130860B70190E0ADDE31103A94F1E04F1A51082F
S11308704114510479F7DEC0843611F0893631F51C
S1130880F80127FF07C060817181828193810C5F29
S11308901F4F08C060817181882777FD8095982F4C
S11308A00E5F1F4F2F76B22E97FF09C0909580954B
S11308B0709561957F4F8F4F9F4F2068B22E2AE02D
S11308C030E0A401F5D0A82EA81843C0853729F438
S11308D02F7EB22E2AE030E025C0F22FF97FBF2E02
S11308E08F36C1F018F4883579F0ADC0803719F02F
S11308F0883721F0A8C02F2F2061B22EB4FE0DC07E
S11309008B2D8460B82E09C024FF0AC09F2F9660E7
S1130910B92E06C028E030E005C020E130E002C076
S113092020E132E0F801B7FE07C060817181828165
S113093093810C5F1F4F06C06081718180E090E05D
S11309400E5F1F4FA401B4D0A82EA818FB2DFF776B
S1130950BF2EB6FE0BC02B2D2E7FA51450F4B4FE73
S11309600AC0B2FC08C02B2D2E7E05C07A2C2B2D7C
S113097003C07A2C01C0752C24FF0DC0FE01EA0DC2
S1130980F11D8081803311F4297E09C022FF06C045
S11309907394739404C0822F867809F0739423FDB2
S11309A012C020FF06C05A2C731418F4530C5718A5
S11309B0732C731460F4B70180E290E02C8700DE9E
S11309C073942C85F6CF731410F4371801C0312CAE
S11309D024FF11C0B70180E390E02C87F1DD2C8562
S11309E022FF16C021FF03C088E590E002C088E71B
S11309F090E0B7010CC0822F867851F021FD02C02F
S1130A0080E201C08BE227FD8DE2B70190E0D8DDE2
S1130A10A51430F4B70180E390E0D2DD5A94F8CF06
S1130A20AA94F401EA0DF11D8081B70190E0C8DDBC
S1130A30A110F6CF332009F45DCEB70180E290E037
S1130A40BFDD3A94F7CFF7018681978102C08FEF1B
S1130A509FEF2C960FB6F894DEBF0FBECDBFDF918B
S1130A60CF911F910F91FF90EF90DF90CF90BF90A7
S1130A70AF909F908F907F906F905F904F903F903A
S1130A802F900895FC010590615070400110D8F733
S1130A90809590958E0F9F1F0895FC0161507040C2
S1130AA001900110D8F7809590958E0F9F1F08959F
S1130AB0FA01AA27283051F1203181F1E8946F938B
S1130AC06E7F6E5F7F4F8F4F9F4FAF4FB1E03ED031
S1130AD0B4E03CD0670F781F891F9A1FA11D680FCF
S1130AE0791F8A1F911DA11D6A0F711D811D911D02
S1130AF0A11D20D009F468943F912AE0269F112477
S1130B003019305D3193DEF6CF010895462F4770DA
S1130B10405D4193B3E00FD0C9F7F6CF462F4F7035
S1130B20405D4A3318F0495D31FD4052419302D093
S1130B30A9F7EACFB4E0A695979587957795679539
S1130B40BA95C9F700976105710508959B01AC0139
S1130B500A2E06945795479537952795BA95C9F760
S1130B60620F731F841F951FA01D0895F894FFCF73
S1130B700000000300000000AC00BD000000000005
S1130B800003000000009200A300000044696769AC
S1130B90746520756D20636F6D616E646F2076617E
S1130BA06C69646F2070617261206F20736C617670
S1130BB0653A0A00494E560A0041434B0A00633421
S1130BC0376466646561326436373036623734368A
S1130BD035616334623864663163666363386562C1
S1130BE0633738653636002573202A2A2A204D417A
S1130BF053544552202A2A2A0A002573202A2A2AD5
S10F0C0020534C415645202A2A2A0A00A1
S9030000FC
