:020000020000FC
:040000000C9400015B
:040044000C947101A6
:100200000FEF0DBF01E20EBF0E9495010E949E01FB
:100210000E94BD017894F3E0EEEB0E947F010E9402
:10022000B4010E94AB01202F0E94B4010E94AB01D7
:10023000302F0E94B4010E94AB01402F0E94B401F4
:100240000E94AB01502FF3E0E4ED0E947F013B32AE
:1002500031F03D32C9F00E945B010C940B01405318
:100260005053642F440F440F440F460F460F450F61
:100270005BE0459F4595459545956BE057EB450FF0
:10028000040E161E0C942B0140535053642F440F40
:10029000440F440F460F460F450F5BE0459F4595C1
:1002A000459545956BE057EB541B50196109052E98
:1002B000162E0C942B01203329F0213341F02233E8
:1002C00059F0F9CF10928900009288000895109299
:1002D0008B0000928A00089510928D0000928C008D
:1002E00008950F9300913F000F9300910201039531
:1002F000009302010F9100933F000F9118950F9307
:1003000000913F000F931F93FF93EF9305910432E9
:1003100021F00E94AB010C948601EF91FF911F9197
:100320000F9100933F000F91089500EE04B90FEF75
:100330000093010100E000930201089510E0109382
:10034000CD0007E60093CC0008E10093C90006E069
:100350000093CA0008951F931091C80015FFFCCFA9
:100360000093CE001F9108951F931091C80017FFAE
:10037000FCCF0091CE001F9108950CE900938700F7
:1003800000E4009386000BE00093890007EB0093E4
:1003900088000BE000938B0007EB00938A000BE0D2
:1003A00000938D0007EB00938C000AEA0093800015
:1003B0000AE10093810000E000936F000895446912
:1003C0006769746520756D20636F6D616E646F3A47
:0803D0000A0D5324200A0D243C
:00000001FF
