:020000020000FC
:040000000C9400015B
:100200000FEF0DBF08E00EBF0E944F010E944A0190
:10021000F3E0EAE10E94260109E40F9309B10078B6
:1002200011F10F910E9465010C940D010F91093499
:1002300021F00E9422010C940D010E94380109E472
:100240000C940D010E94410104E408950F9305915F
:10025000043221F00E945C010C9427010F91089553
:1002600009B10078E9F309B10078E9F30C941601BB
:1002700013951BB913951BB913951BB913951BB98E
:1002800008951A951BB91A951BB91A951BB91A9599
:100290001BB908950EE30AB900E00BB9089510E008
:1002A0001093C50000E10093C40008E10093C10071
:1002B00006E00093C20008951F931091C00015FF3F
:1002C000FCCF0093C6001F9108951F931091C000AA
:1002D00017FF08C00091C600009300020E9474013D
:1002E0001F9108951F910895F3E0E8E20E9426010E
:1002F00007E20E945C01009100020E945C0107E29B
:100300000E945C01F3E0ECE30E942601F3E0E8E3E5
:100310000E942601009100020895507265737320B7
:1003200061206B65790A0D244368617220726563F0
:1003300065697665643A24000A0D24002E0A0D24AE
:00000001FF
